{
  "contractName": "DAO",
  "abi": [
    {
      "inputs": [
        {
          "internalType": "uint256",
          "name": "contributionTime",
          "type": "uint256"
        },
        {
          "internalType": "uint256",
          "name": "_voteTime",
          "type": "uint256"
        },
        {
          "internalType": "uint256",
          "name": "_quorum",
          "type": "uint256"
        }
      ],
      "stateMutability": "nonpayable",
      "type": "constructor"
    },
    {
      "stateMutability": "payable",
      "type": "fallback",
      "payable": true
    },
    {
      "inputs": [],
      "name": "admin",
      "outputs": [
        {
          "internalType": "address",
          "name": "",
          "type": "address"
        }
      ],
      "stateMutability": "view",
      "type": "function",
      "constant": true
    },
    {
      "inputs": [],
      "name": "availableFunds",
      "outputs": [
        {
          "internalType": "uint256",
          "name": "",
          "type": "uint256"
        }
      ],
      "stateMutability": "view",
      "type": "function",
      "constant": true
    },
    {
      "inputs": [],
      "name": "contributionEnd",
      "outputs": [
        {
          "internalType": "uint256",
          "name": "",
          "type": "uint256"
        }
      ],
      "stateMutability": "view",
      "type": "function",
      "constant": true
    },
    {
      "inputs": [
        {
          "internalType": "address",
          "name": "",
          "type": "address"
        }
      ],
      "name": "investors",
      "outputs": [
        {
          "internalType": "bool",
          "name": "",
          "type": "bool"
        }
      ],
      "stateMutability": "view",
      "type": "function",
      "constant": true
    },
    {
      "inputs": [],
      "name": "nextProposalId",
      "outputs": [
        {
          "internalType": "uint256",
          "name": "",
          "type": "uint256"
        }
      ],
      "stateMutability": "view",
      "type": "function",
      "constant": true
    },
    {
      "inputs": [
        {
          "internalType": "uint256",
          "name": "",
          "type": "uint256"
        }
      ],
      "name": "proposals",
      "outputs": [
        {
          "internalType": "uint256",
          "name": "id",
          "type": "uint256"
        },
        {
          "internalType": "string",
          "name": "name",
          "type": "string"
        },
        {
          "internalType": "uint256",
          "name": "amount",
          "type": "uint256"
        },
        {
          "internalType": "address payable",
          "name": "recipient",
          "type": "address"
        },
        {
          "internalType": "uint256",
          "name": "votes",
          "type": "uint256"
        },
        {
          "internalType": "uint256",
          "name": "end",
          "type": "uint256"
        },
        {
          "internalType": "bool",
          "name": "executed",
          "type": "bool"
        }
      ],
      "stateMutability": "view",
      "type": "function",
      "constant": true
    },
    {
      "inputs": [],
      "name": "quorum",
      "outputs": [
        {
          "internalType": "uint256",
          "name": "",
          "type": "uint256"
        }
      ],
      "stateMutability": "view",
      "type": "function",
      "constant": true
    },
    {
      "inputs": [
        {
          "internalType": "address",
          "name": "",
          "type": "address"
        }
      ],
      "name": "shares",
      "outputs": [
        {
          "internalType": "uint256",
          "name": "",
          "type": "uint256"
        }
      ],
      "stateMutability": "view",
      "type": "function",
      "constant": true
    },
    {
      "inputs": [],
      "name": "totalShares",
      "outputs": [
        {
          "internalType": "uint256",
          "name": "",
          "type": "uint256"
        }
      ],
      "stateMutability": "view",
      "type": "function",
      "constant": true
    },
    {
      "inputs": [],
      "name": "voteTime",
      "outputs": [
        {
          "internalType": "uint256",
          "name": "",
          "type": "uint256"
        }
      ],
      "stateMutability": "view",
      "type": "function",
      "constant": true
    },
    {
      "inputs": [
        {
          "internalType": "address",
          "name": "",
          "type": "address"
        },
        {
          "internalType": "uint256",
          "name": "",
          "type": "uint256"
        }
      ],
      "name": "votes",
      "outputs": [
        {
          "internalType": "bool",
          "name": "",
          "type": "bool"
        }
      ],
      "stateMutability": "view",
      "type": "function",
      "constant": true
    },
    {
      "inputs": [],
      "name": "getTotalShares",
      "outputs": [
        {
          "internalType": "uint256",
          "name": "",
          "type": "uint256"
        }
      ],
      "stateMutability": "view",
      "type": "function",
      "constant": true
    },
    {
      "inputs": [],
      "name": "contribute",
      "outputs": [],
      "stateMutability": "payable",
      "type": "function",
      "payable": true
    },
    {
      "inputs": [
        {
          "internalType": "uint256",
          "name": "amount",
          "type": "uint256"
        }
      ],
      "name": "redeemShare",
      "outputs": [],
      "stateMutability": "nonpayable",
      "type": "function"
    },
    {
      "inputs": [
        {
          "internalType": "uint256",
          "name": "amount",
          "type": "uint256"
        },
        {
          "internalType": "address",
          "name": "to",
          "type": "address"
        }
      ],
      "name": "transferShare",
      "outputs": [],
      "stateMutability": "nonpayable",
      "type": "function"
    },
    {
      "inputs": [
        {
          "internalType": "string",
          "name": "name",
          "type": "string"
        },
        {
          "internalType": "uint256",
          "name": "amount",
          "type": "uint256"
        },
        {
          "internalType": "address payable",
          "name": "recipient",
          "type": "address"
        }
      ],
      "name": "createProposal",
      "outputs": [],
      "stateMutability": "nonpayable",
      "type": "function"
    },
    {
      "inputs": [
        {
          "internalType": "uint256",
          "name": "proposalId",
          "type": "uint256"
        }
      ],
      "name": "vote",
      "outputs": [],
      "stateMutability": "nonpayable",
      "type": "function"
    },
    {
      "inputs": [
        {
          "internalType": "uint256",
          "name": "proposalId",
          "type": "uint256"
        }
      ],
      "name": "executeProposal",
      "outputs": [],
      "stateMutability": "nonpayable",
      "type": "function"
    },
    {
      "inputs": [
        {
          "internalType": "uint256",
          "name": "amount",
          "type": "uint256"
        },
        {
          "internalType": "address payable",
          "name": "to",
          "type": "address"
        }
      ],
      "name": "withdrawEther",
      "outputs": [],
      "stateMutability": "nonpayable",
      "type": "function"
    }
  ],
  "bytecode": "0x608060405234801561001057600080fd5b50604051611a0a380380611a0a8339818101604052606081101561003357600080fd5b810190808051906020019092919080519060200190929190805190602001909291905050506000811180156100685750606481105b6100da576040517f08c379a00000000000000000000000000000000000000000000000000000000081526004018080602001828103825260208152602001807f71756f72756d206d757374206265206265747765656e203020616e642031303081525060200191505060405180910390fd5b824201600681905550816008819055508060098190555033600a60006101000a81548173ffffffffffffffffffffffffffffffffffffffff021916908373ffffffffffffffffffffffffffffffffffffffff1602179055505050506118c6806101446000396000f3fe6080604052600436106101185760003560e01c80636f7bc9be116100a0578063ce7c2ac211610064578063ce7c2ac214610645578063d151b516146106aa578063d5002f2e146106d5578063d7bb99ba14610700578063f851a4401461070a57610119565b80636f7bc9be146104a8578063868643df146105115780639f2524ee1461054c578063bcf93dd6146105bf578063ce56c454146105ea57610119565b80631703a018116100e75780631703a0181461030a5780632ab09d14146103355780633a98ef391461036057806346fcff4c1461038b5780636ac1e01f146103b657610119565b80630121b93f1461012b578063013cf08b14610166578063039383e6146102745780630d61b519146102cf57610119565b5b34600560008282540192505081905550005b34801561013757600080fd5b506101646004803603602081101561014e57600080fd5b8101908080359060200190929190505050610761565b005b34801561017257600080fd5b5061019f6004803603602081101561018957600080fd5b8101908080359060200190929190505050610a11565b60405180888152602001806020018781526020018673ffffffffffffffffffffffffffffffffffffffff1673ffffffffffffffffffffffffffffffffffffffff16815260200185815260200184815260200183151515158152602001828103825288818151815260200191508051906020019080838360005b83811015610233578082015181840152602081019050610218565b50505050905090810190601f1680156102605780820380516001836020036101000a031916815260200191505b509850505050505050505060405180910390f35b34801561028057600080fd5b506102cd6004803603604081101561029757600080fd5b8101908080359060200190929190803573ffffffffffffffffffffffffffffffffffffffff169060200190929190505050610b18565b005b3480156102db57600080fd5b50610308600480360360208110156102f257600080fd5b8101908080359060200190929190505050610cc2565b005b34801561031657600080fd5b5061031f610f27565b6040518082815260200191505060405180910390f35b34801561034157600080fd5b5061034a610f2d565b6040518082815260200191505060405180910390f35b34801561036c57600080fd5b50610375610f33565b6040518082815260200191505060405180910390f35b34801561039757600080fd5b506103a0610f39565b6040518082815260200191505060405180910390f35b3480156103c257600080fd5b506104a6600480360360608110156103d957600080fd5b81019080803590602001906401000000008111156103f657600080fd5b82018360208201111561040857600080fd5b8035906020019184600183028401116401000000008311171561042a57600080fd5b91908080601f016020809104026020016040519081016040528093929190818152602001838380828437600081840152601f19601f82011690508083019250505050505050919291929080359060200190929190803573ffffffffffffffffffffffffffffffffffffffff169060200190929190505050610f3f565b005b3480156104b457600080fd5b506104f7600480360360208110156104cb57600080fd5b81019080803573ffffffffffffffffffffffffffffffffffffffff1690602001909291905050506111ba565b604051808215151515815260200191505060405180910390f35b34801561051d57600080fd5b5061054a6004803603602081101561053457600080fd5b81019080803590602001909291905050506111da565b005b34801561055857600080fd5b506105a56004803603604081101561056f57600080fd5b81019080803573ffffffffffffffffffffffffffffffffffffffff169060200190929190803590602001909291905050506113ae565b604051808215151515815260200191505060405180910390f35b3480156105cb57600080fd5b506105d46113dd565b6040518082815260200191505060405180910390f35b3480156105f657600080fd5b506106436004803603604081101561060d57600080fd5b8101908080359060200190929190803573ffffffffffffffffffffffffffffffffffffffff1690602001909291905050506113e3565b005b34801561065157600080fd5b506106946004803603602081101561066857600080fd5b81019080803573ffffffffffffffffffffffffffffffffffffffff1690602001909291905050506114b4565b6040518082815260200191505060405180910390f35b3480156106b657600080fd5b506106bf6114cc565b6040518082815260200191505060405180910390f35b3480156106e157600080fd5b506106ea6114d2565b6040518082815260200191505060405180910390f35b6107086114dc565b005b34801561071657600080fd5b5061071f6115fc565b604051808273ffffffffffffffffffffffffffffffffffffffff1673ffffffffffffffffffffffffffffffffffffffff16815260200191505060405180910390f35b600115156000803373ffffffffffffffffffffffffffffffffffffffff1673ffffffffffffffffffffffffffffffffffffffff16815260200190815260200160002060009054906101000a900460ff16151514610826576040517f08c379a000000000000000000000000000000000000000000000000000000000815260040180806020018281038252600e8152602001807f6f6e6c7920696e766573746f727300000000000000000000000000000000000081525060200191505060405180910390fd5b600060036000838152602001908152602001600020905060001515600260003373ffffffffffffffffffffffffffffffffffffffff1673ffffffffffffffffffffffffffffffffffffffff168152602001908152602001600020600084815260200190815260200160002060009054906101000a900460ff161515146108f7576040517f08c379a000000000000000000000000000000000000000000000000000000000815260040180806020018281038252602a81526020018061179b602a913960400191505060405180910390fd5b80600501544210610953576040517f08c379a00000000000000000000000000000000000000000000000000000000081526004018080602001828103825260258152602001806117c56025913960400191505060405180910390fd5b6001600260003373ffffffffffffffffffffffffffffffffffffffff1673ffffffffffffffffffffffffffffffffffffffff168152602001908152602001600020600084815260200190815260200160002060006101000a81548160ff021916908315150217905550600160003373ffffffffffffffffffffffffffffffffffffffff1673ffffffffffffffffffffffffffffffffffffffff1681526020019081526020016000205481600401600082825401925050819055505050565b6003602052806000526040600020600091509050806000015490806001018054600181600116156101000203166002900480601f016020809104026020016040519081016040528092919081815260200182805460018160011615610100020316600290048015610ac35780601f10610a9857610100808354040283529160200191610ac3565b820191906000526020600020905b815481529060010190602001808311610aa657829003601f168201915b5050505050908060020154908060030160009054906101000a900473ffffffffffffffffffffffffffffffffffffffff16908060040154908060050154908060060160009054906101000a900460ff16905087565b81600160003373ffffffffffffffffffffffffffffffffffffffff1673ffffffffffffffffffffffffffffffffffffffff168152602001908152602001600020541015610bcd576040517f08c379a00000000000000000000000000000000000000000000000000000000081526004018080602001828103825260118152602001807f6e6f7420656e6f7567682073686172657300000000000000000000000000000081525060200191505060405180910390fd5b81600160003373ffffffffffffffffffffffffffffffffffffffff1673ffffffffffffffffffffffffffffffffffffffff1681526020019081526020016000206000828254039250508190555081600160008373ffffffffffffffffffffffffffffffffffffffff1673ffffffffffffffffffffffffffffffffffffffff1681526020019081526020016000206000828254019250508190555060016000808373ffffffffffffffffffffffffffffffffffffffff1673ffffffffffffffffffffffffffffffffffffffff16815260200190815260200160002060006101000a81548160ff0219169083151502179055505050565b600a60009054906101000a900473ffffffffffffffffffffffffffffffffffffffff1673ffffffffffffffffffffffffffffffffffffffff163373ffffffffffffffffffffffffffffffffffffffff1614610d85576040517f08c379a000000000000000000000000000000000000000000000000000000000815260040180806020018281038252600a8152602001807f6f6e6c792061646d696e0000000000000000000000000000000000000000000081525060200191505060405180910390fd5b60006003600083815260200190815260200160002090508060050154421015610df9576040517f08c379a00000000000000000000000000000000000000000000000000000000081526004018080602001828103825260278152602001806118436027913960400191505060405180910390fd5b600015158160060160009054906101000a900460ff16151514610e67576040517f08c379a000000000000000000000000000000000000000000000000000000000815260040180806020018281038252602881526020018061181b6028913960400191505060405180910390fd5b600954600454606483600401540281610e7c57fe5b041015610ed4576040517f08c379a00000000000000000000000000000000000000000000000000000000081526004018080602001828103825260318152602001806117ea6031913960400191505060405180910390fd5b60018160060160006101000a81548160ff021916908315150217905550610f2381600201548260030160009054906101000a900473ffffffffffffffffffffffffffffffffffffffff16611622565b5050565b60095481565b60075481565b60045481565b60055481565b600115156000803373ffffffffffffffffffffffffffffffffffffffff1673ffffffffffffffffffffffffffffffffffffffff16815260200190815260200160002060009054906101000a900460ff16151514611004576040517f08c379a000000000000000000000000000000000000000000000000000000000815260040180806020018281038252600e8152602001807f6f6e6c7920696e766573746f727300000000000000000000000000000000000081525060200191505060405180910390fd5b81600554101561107c576040517f08c379a000000000000000000000000000000000000000000000000000000000815260040180806020018281038252600e8152602001807f616d6f756e7420746f6f2062696700000000000000000000000000000000000081525060200191505060405180910390fd5b6040518060e0016040528060075481526020018481526020018381526020018273ffffffffffffffffffffffffffffffffffffffff16815260200160008152602001600854420181526020016000151581525060036000600754815260200190815260200160002060008201518160000155602082015181600101908051906020019061110a9291906116f5565b506040820151816002015560608201518160030160006101000a81548173ffffffffffffffffffffffffffffffffffffffff021916908373ffffffffffffffffffffffffffffffffffffffff1602179055506080820151816004015560a0820151816005015560c08201518160060160006101000a81548160ff02191690831515021790555090505081600560008282540392505081905550600760008154809291906001019190505550505050565b60006020528060005260406000206000915054906101000a900460ff1681565b80600160003373ffffffffffffffffffffffffffffffffffffffff1673ffffffffffffffffffffffffffffffffffffffff16815260200190815260200160002054101561128f576040517f08c379a00000000000000000000000000000000000000000000000000000000081526004018080602001828103825260118152602001807f6e6f7420656e6f7567682073686172657300000000000000000000000000000081525060200191505060405180910390fd5b806005541015611307576040517f08c379a000000000000000000000000000000000000000000000000000000000815260040180806020018281038252601a8152602001807f6e6f7420656e6f75676820617661696c61626c652066756e647300000000000081525060200191505060405180910390fd5b80600160003373ffffffffffffffffffffffffffffffffffffffff1673ffffffffffffffffffffffffffffffffffffffff16815260200190815260200160002060008282540392505081905550806005600082825403925050819055503373ffffffffffffffffffffffffffffffffffffffff166108fc829081150290604051600060405180830381858888f193505050501580156113aa573d6000803e3d6000fd5b5050565b60026020528160005260406000206020528060005260406000206000915091509054906101000a900460ff1681565b60085481565b600a60009054906101000a900473ffffffffffffffffffffffffffffffffffffffff1673ffffffffffffffffffffffffffffffffffffffff163373ffffffffffffffffffffffffffffffffffffffff16146114a6576040517f08c379a000000000000000000000000000000000000000000000000000000000815260040180806020018281038252600a8152602001807f6f6e6c792061646d696e0000000000000000000000000000000000000000000081525060200191505060405180910390fd5b6114b08282611622565b5050565b60016020528060005260406000206000915090505481565b60065481565b6000600454905090565b6006544210611536576040517f08c379a000000000000000000000000000000000000000000000000000000000815260040180806020018281038252602781526020018061186a6027913960400191505060405180910390fd5b60016000803373ffffffffffffffffffffffffffffffffffffffff1673ffffffffffffffffffffffffffffffffffffffff16815260200190815260200160002060006101000a81548160ff02191690831515021790555034600160003373ffffffffffffffffffffffffffffffffffffffff1673ffffffffffffffffffffffffffffffffffffffff168152602001908152602001600020600082825401925050819055503460046000828254019250508190555034600560008282540192505081905550565b600a60009054906101000a900473ffffffffffffffffffffffffffffffffffffffff1681565b60055482111561169a576040517f08c379a00000000000000000000000000000000000000000000000000000000081526004018080602001828103825260198152602001807f6e6f7420656e6f75676820617661696c61626c6546756e64730000000000000081525060200191505060405180910390fd5b816005600082825403925050819055508073ffffffffffffffffffffffffffffffffffffffff166108fc839081150290604051600060405180830381858888f193505050501580156116f0573d6000803e3d6000fd5b505050565b828054600181600116156101000203166002900490600052602060002090601f016020900481019282601f1061173657805160ff1916838001178555611764565b82800160010185558215611764579182015b82811115611763578251825591602001919060010190611748565b5b5090506117719190611775565b5090565b61179791905b8082111561179357600081600090555060010161177b565b5090565b9056fe696e766573746f722063616e206f6e6c7920766f7465206f6e636520666f7220612070726f706f73616c63616e206f6e6c7920766f746520756e74696c2070726f706f73616c20656e64206461746563616e6e6f7420657865637574652070726f706f73616c207769746820766f74657320232062656c6f772071756f72756d63616e6e6f7420657865637574652070726f706f73616c20616c726561647920657865637574656463616e6e6f7420657865637574652070726f706f73616c206265666f726520656e64206461746563616e6e6f7420636f6e7472696275746520616674657220636f6e747269627574696f6e456e64a2646970667358221220eb334f584c03fbbce4dfbca3c73eafe8113e0a2f311603425f57e4fe095ada0564736f6c63430006000033",
  "source": "pragma solidity >= 0.5.0 <= 0.7.0;\n\n/**\n * DAO contract:\n * 1. Collects investors money (ether) & allocate shares\n * 2. Keep track of investor contributions with shares\n * 3. Allow investors to transfer shares\n * 4. allow investment proposals to be created and voted\n * 5. execute successful investment proposals (i.e send money)\n */\n\ncontract DAO {\n  struct Proposal {\n    uint id;\n    string name;\n    uint amount;\n    address payable recipient;\n    uint votes;\n    uint end;\n    bool executed;\n  }\n\n  mapping(address => bool) public investors;\n  mapping(address => uint) public shares;\n  mapping(address => mapping(uint => bool)) public votes;\n  mapping(uint => Proposal) public proposals;\n  uint public totalShares;\n  uint public availableFunds;\n  uint public contributionEnd;\n  uint public nextProposalId;\n  uint public voteTime;\n  uint public quorum;\n  address public admin;\n\n  constructor(\n    uint contributionTime,\n    uint _voteTime,\n    uint _quorum)\n    public {\n    require(_quorum > 0 && _quorum < 100, 'quorum must be between 0 and 100');\n    contributionEnd = now + contributionTime;\n    voteTime = _voteTime;\n    quorum = _quorum;\n    admin = msg.sender;\n  }\n\n  function getTotalShares() public view returns(uint) {\n    return totalShares;\n  }\n\n  function contribute() external payable {\n    require(now < contributionEnd, 'cannot contribute after contributionEnd');\n    investors[msg.sender] = true;\n    shares[msg.sender] += msg.value;\n    totalShares += msg.value;\n    availableFunds += msg.value;\n  }\n\n  function redeemShare(uint amount) external {\n    require(shares[msg.sender] >= amount, 'not enough shares');\n    require(availableFunds >= amount, 'not enough available funds');\n    shares[msg.sender] -= amount;\n    availableFunds -= amount;\n    msg.sender.transfer(amount);\n  }\n    \n  function transferShare(uint amount, address to) external {\n    require(shares[msg.sender] >= amount, 'not enough shares');\n    shares[msg.sender] -= amount;\n    shares[to] += amount;\n    investors[to] = true;\n  }\n\n  function createProposal(\n    string memory name,\n    uint amount,\n    address payable recipient) \n    public \n    onlyInvestors() {\n    require(availableFunds >= amount, 'amount too big');\n    proposals[nextProposalId] = Proposal(\n      nextProposalId,\n      name,\n      amount,\n      recipient,\n      0,\n      now + voteTime,\n      false\n    );\n    availableFunds -= amount;\n    nextProposalId++;\n  }\n\n  function vote(uint proposalId) external onlyInvestors() {\n    Proposal storage proposal = proposals[proposalId];\n    require(votes[msg.sender][proposalId] == false, 'investor can only vote once for a proposal');\n    require(now < proposal.end, 'can only vote until proposal end date');\n    votes[msg.sender][proposalId] = true;\n    proposal.votes += shares[msg.sender];\n  }\n\n  function executeProposal(uint proposalId) external onlyAdmin() {\n    Proposal storage proposal = proposals[proposalId];\n    require(now >= proposal.end, 'cannot execute proposal before end date');\n    require(proposal.executed == false, 'cannot execute proposal already executed');\n    //BUG 1: Because of integer division,\n    //the require condition failed even when we had enough votes\n    //require((proposal.votes / totalShares) * 100 >= quorum, 'cannot execute proposal with votes # below quorum');\n    require(((proposal.votes * 100) / totalShares) >= quorum, 'cannot execute proposal with votes # below quorum');\n    //BUG2: Added this missing code, otherwise can execute same proposal twice\n    proposal.executed = true;\n    _transferEther(proposal.amount, proposal.recipient);\n  }\n\n  function withdrawEther(uint amount, address payable to) external onlyAdmin() {\n    _transferEther(amount, to);\n  }\n  \n  function _transferEther(uint amount, address payable to) internal {\n    require(amount <= availableFunds, 'not enough availableFunds');\n    availableFunds -= amount;\n    to.transfer(amount);\n  }\n\n  //For ether returns of proposal investments\n  fallback() external payable {\n    availableFunds += msg.value;\n  }\n\n  modifier onlyInvestors() {\n    require(investors[msg.sender] == true, 'only investors');\n    _;\n  }\n\n  modifier onlyAdmin() {\n    require(msg.sender == admin, 'only admin');\n    _;\n  }\n}\n",
  "sourcePath": "/Users/donalddeanwalker/Sites/etb/day15-dao/frontend/end/contracts/DAO.sol",
  "compiler": {
    "name": "solc",
    "version": "0.6.0+commit.26b70077.Emscripten.clang"
  },
  "schemaVersion": "3.0.20",
  "updatedAt": "2020-02-09T17:20:43.924Z",
  "networkType": "ethereum",
  "devdoc": {
    "methods": {}
  },
  "userdoc": {
    "methods": {},
    "notice": "DAO contract: 1. Collects investors money (ether) & allocate shares 2. Keep track of investor contributions with shares 3. Allow investors to transfer shares 4. allow investment proposals to be created and voted 5. execute successful investment proposals (i.e send money)"
  }
}